---
title: Submit Claim Transaction Data
slug: /guides/staking-api/polygon/delegate/submit-claim-transaction-data
---

After collecting the required inputs, send a `PUT` request to `/api/v1/flows/[:flow_id]/next` to move on to the next step.

### Parameters

- `name` &mdash; `string` Name of the action to execute (required).
- `inputs` &mdash; `array`
  - `gas_limit` &mdash; `number` Adjust if you wish to limit the possible transaction fee (optional).
  - `gas_price` &mdash; `number` Adjust if you wish to limit the possible transaction fee (optional).

#### Sample cURL Request

```bash
curl -X PUT 'https://polygon-slate.datahub.figment.io/api/v1/flows/07d6752c-c412-4cfa-a12c-65feab06acd6/next' \
-H 'Content-Type: application/json' \
-H 'Authorization: <api_key>' \
-d '{
  "name": "create_claim_tx"
}'
```

### Response

We see two possible `actions`:

- `refresh_claim_tx` &mdash; If you need to get a fresh version of the transaction payload (for example, if the nonce needs to be updated).
- `sign_claim_tx` &mdash; Submit a signed transaction payload ready to be broadcast to the network.

We will choose `sign_claim_tx`, which indicates one input to collect:

- `transaction_payload` &mdash; the signed transaction payload ready to be broadcast to the network.

#### Sample Response

```json {3,6,10,21}
{
  "id": "07d6752c-c412-4cfa-a12c-65feab06acd6",
  "state": "claim_tx_signature",
  "actions": [
    {
      "name": "refresh_claim_tx",
      "inputs": []
    },
    {
      "name": "sign_claim_tx",
      "inputs": [
        {
          "name": "transaction_payload",
          "display": "Transaction Payload",
          "description": "",
          "type": "signed_transaction",
          "validations": [],
          "signers": ["0x542138451d0953Aa082dE659d2A1ca1e5EF452Bf"],
          "transaction_payload": "0x02f84c05038459682f00849b6d87fe830278519415ed57ca28cbebb58d9c6c62f570046bc089bc6680a4e97fddc20000000000000000000000000000000000000000000000000000000000000001c0"
        },
        {
          "name": "signatures",
          "display": "Signatures",
          "description": "",
          "type": "array_of_signatures",
          "validations": [],
          "signers": ["0x542138451d0953Aa082dE659d2A1ca1e5EF452Bf"],
          "transaction_payload": "0x02f84c05038459682f00849b6d87fe830278519415ed57ca28cbebb58d9c6c62f570046bc089bc6680a4e97fddc20000000000000000000000000000000000000000000000000000000000000001c0",
          "signing_payload": null
        }
      ]
    }
  ],
  "data": {
    "delegator_address": "0x542138451d0953Aa082dE659d2A1ca1e5EF452Bf",
    "validator_address": "0x15ED57Ca28cbebb58d9c6C62F570046BC089bC66",
    "amount": "1.0",
    "max_shares_to_burn": 1000000000000000000,
    "max_slippage_percentage": 0,
    "exchange_rate": "100000000000000000000000000000.0",
    "exchange_rate_precision": "100000000000000000000000000000.0",
    "unbond_transaction": {
      "raw": "0x02f86d05028459682f0084597a1b168304cf969415ed57ca28cbebb58d9c6c62f570046bc089bc6680b844c83ec04d0000000000000000000000000000000000000000000000000de0b6b3a76400000000000000000000000000000000000000000000000000000de0b6b3a7640000c0",
      "signing_payload": null,
      "signed": "0x02f8b005028459682f0084597a1b168304cf969415ed57ca28cbebb58d9c6c62f570046bc089bc6680b844c83ec04d0000000000000000000000000000000000000000000000000de0b6b3a76400000000000000000000000000000000000000000000000000000de0b6b3a7640000c001a0f8462149f25c9942852611ea06820bf0b3f588f63aead9702225010b2e80a096a0765feade968806e16f36cadf533d779ceb071f54ca6cf4935f6464302c0873da",
      "hash": "0x36c57e119ef341fb23f261a7a44d10d7fe4044ccbcd1b39d509730ee0b75797c",
      "status": "confirmed",
      "error": null,
      "signatures": [],
      "gas_limit": null,
      "gas_price": null
    },
    "claim_transaction": {
      "raw": "0x02f84c05038459682f00849b6d87fe830278519415ed57ca28cbebb58d9c6c62f570046bc089bc6680a4e97fddc20000000000000000000000000000000000000000000000000000000000000001c0",
      "signing_payload": null,
      "signed": null,
      "hash": null,
      "status": null,
      "error": null,
      "signatures": null,
      "gas_limit": null,
      "gas_price": null
    },
    "estimated_unbonded_at": "2022-10-09T09:25:17.514Z",
    "unbond_checkpoint": 78566,
    "unbond_nonce": 1
  },
  "network_code": "polygon",
  "chain_code": "testnet",
  "created_at": "2022-10-06T23:40:33.826Z",
  "updated_at": "2022-10-11T18:11:23.081Z"
}
```

:::info note

Make sure to save the `transaction_payload` from this response, which is what needs to be signed in the next step.

:::
