---
title: Get Flow Status
slug: /guides/staking-api/polygon/undelegate/get-flow-status
pagination_next: null
---

To refresh the transaction state and get the latest status of the existing flow, send a GET request to `/api/v1/flows/[:flow_id]` using the flow ID from the previous step.

### Parameters

- None

#### Sample cURL Request

```bash
curl -X GET 'https://polkadot-slate.datahub.figment.io/api/v1/flows/07d6752c-c412-4cfa-a12c-65feab06acd6' \
-H 'Authorization: <api_key>'
```

### Response

- `state` &mdash; `string` The current state of the flow.

:::info note

The `state` field will update from `claim_tx_broadcasting` to `done`.

:::

#### Sample Response

```json {3}
{
  "id": "07d6752c-c412-4cfa-a12c-65feab06acd6",
  "state": "done",
  "actions": [],
  "data": {
    "delegator_address": "0x542138451d0953Aa082dE659d2A1ca1e5EF452Bf",
    "validator_address": "0x15ED57Ca28cbebb58d9c6C62F570046BC089bC66",
    "amount": "1.0",
    "max_shares_to_burn": 1e18,
    "max_slippage_percentage": 0,
    "exchange_rate": "100000000000000000000000000000.0",
    "exchange_rate_precision": "100000000000000000000000000000.0",
    "unbond_transaction": {
      "raw": "0x02f86d05028459682f0084597a1b168304cf969415ed57ca28cbebb58d9c6c62f570046bc089bc6680b844c83ec04d0000000000000000000000000000000000000000000000000de0b6b3a76400000000000000000000000000000000000000000000000000000de0b6b3a7640000c0",
      "signing_payload": null,
      "signed": "0x02f8b005028459682f0084597a1b168304cf969415ed57ca28cbebb58d9c6c62f570046bc089bc6680b844c83ec04d0000000000000000000000000000000000000000000000000de0b6b3a76400000000000000000000000000000000000000000000000000000de0b6b3a7640000c001a0f8462149f25c9942852611ea06820bf0b3f588f63aead9702225010b2e80a096a0765feade968806e16f36cadf533d779ceb071f54ca6cf4935f6464302c0873da",
      "hash": "0x36c57e119ef341fb23f261a7a44d10d7fe4044ccbcd1b39d509730ee0b75797c",
      "status": "confirmed",
      "error": null,
      "signatures": [],
      "gas_limit": null,
      "gas_price": null
    },
    "claim_transaction": {
      "raw": "0x02f84c05038459682f00849b6d87fe830278519415ed57ca28cbebb58d9c6c62f570046bc089bc6680a4e97fddc20000000000000000000000000000000000000000000000000000000000000001c0",
      "signing_payload": null,
      "signed": "0x02f88f05038459682f00849b6d87fe830278519415ed57ca28cbebb58d9c6c62f570046bc089bc6680a4e97fddc20000000000000000000000000000000000000000000000000000000000000001c001a0818e02361da6e36a7d0093d385d1f13b0c5e539126023f8a4175ab1a375d0723a0571fabd4f32c978e1b17585f4df52d667ca9bd824204f43db0805a291c635c46",
      "hash": "0x5a565cc0002c73655cbf976fa3a04d9b9d20bc196e88f414cbdbdaed70ab7af6",
      "status": null,
      "error": null,
      "signatures": [],
      "gas_limit": null,
      "gas_price": null
    },
    "estimated_unbonded_at": "2022-10-09T09:25:17.514Z",
    "unbond_checkpoint": 78566,
    "unbond_nonce": 1
  },
  "network_code": "polygon",
  "chain_code": "testnet",
  "created_at": "2022-10-06T23:40:33.826Z",
  "updated_at": "2022-10-11T18:13:51.472Z"
}
```

### Undelegate Flow Complete

Congratulations, your stake is now undelegated and MATIC rewards have been claimed!
