"use strict";(self.webpackChunkfigment_documentation=self.webpackChunkfigment_documentation||[]).push([[1915],{3905:(e,n,a)=>{a.d(n,{Zo:()=>d,kt:()=>b});var t=a(7294);function i(e,n,a){return n in e?Object.defineProperty(e,n,{value:a,enumerable:!0,configurable:!0,writable:!0}):e[n]=a,e}function r(e,n){var a=Object.keys(e);if(Object.getOwnPropertySymbols){var t=Object.getOwnPropertySymbols(e);n&&(t=t.filter((function(n){return Object.getOwnPropertyDescriptor(e,n).enumerable}))),a.push.apply(a,t)}return a}function o(e){for(var n=1;n<arguments.length;n++){var a=null!=arguments[n]?arguments[n]:{};n%2?r(Object(a),!0).forEach((function(n){i(e,n,a[n])})):Object.getOwnPropertyDescriptors?Object.defineProperties(e,Object.getOwnPropertyDescriptors(a)):r(Object(a)).forEach((function(n){Object.defineProperty(e,n,Object.getOwnPropertyDescriptor(a,n))}))}return e}function c(e,n){if(null==e)return{};var a,t,i=function(e,n){if(null==e)return{};var a,t,i={},r=Object.keys(e);for(t=0;t<r.length;t++)a=r[t],n.indexOf(a)>=0||(i[a]=e[a]);return i}(e,n);if(Object.getOwnPropertySymbols){var r=Object.getOwnPropertySymbols(e);for(t=0;t<r.length;t++)a=r[t],n.indexOf(a)>=0||Object.prototype.propertyIsEnumerable.call(e,a)&&(i[a]=e[a])}return i}var s=t.createContext({}),l=function(e){var n=t.useContext(s),a=n;return e&&(a="function"==typeof e?e(n):o(o({},n),e)),a},d=function(e){var n=l(e.components);return t.createElement(s.Provider,{value:n},e.children)},p={inlineCode:"code",wrapper:function(e){var n=e.children;return t.createElement(t.Fragment,{},n)}},u=t.forwardRef((function(e,n){var a=e.components,i=e.mdxType,r=e.originalType,s=e.parentName,d=c(e,["components","mdxType","originalType","parentName"]),u=l(a),b=i,f=u["".concat(s,".").concat(b)]||u[b]||p[b]||r;return a?t.createElement(f,o(o({ref:n},d),{},{components:a})):t.createElement(f,o({ref:n},d))}));function b(e,n){var a=arguments,i=n&&n.mdxType;if("string"==typeof e||i){var r=a.length,o=new Array(r);o[0]=u;var c={};for(var s in n)hasOwnProperty.call(n,s)&&(c[s]=n[s]);c.originalType=e,c.mdxType="string"==typeof e?e:i,o[1]=c;for(var l=2;l<r;l++)o[l]=a[l];return t.createElement.apply(null,o)}return t.createElement.apply(null,a)}u.displayName="MDXCreateElement"},3326:(e,n,a)=>{a.r(n),a.d(n,{assets:()=>s,contentTitle:()=>o,default:()=>p,frontMatter:()=>r,metadata:()=>c,toc:()=>l});var t=a(7462),i=(a(7294),a(3905));const r={title:"Submit Signed Claim Transaction for Broadcast",slug:"/guides/staking-api/polygon/delegate/submit-a-signed-claim-transaction"},o=void 0,c={unversionedId:"guides/staking-api/Polygon/undelegate/submit-signed-transaction-2",id:"guides/staking-api/Polygon/undelegate/submit-signed-transaction-2",title:"Submit Signed Claim Transaction for Broadcast",description:"After signing the transaction, send a PUT request to /api/v1/flows/[:flow_id]/next with the signed payload.",source:"@site/docs/guides/staking-api/Polygon/undelegate/8_submit-signed-transaction-2.mdx",sourceDirName:"guides/staking-api/Polygon/undelegate",slug:"/guides/staking-api/polygon/delegate/submit-a-signed-claim-transaction",permalink:"/guides/staking-api/polygon/delegate/submit-a-signed-claim-transaction",draft:!1,tags:[],version:"current",sidebarPosition:8,frontMatter:{title:"Submit Signed Claim Transaction for Broadcast",slug:"/guides/staking-api/polygon/delegate/submit-a-signed-claim-transaction"},sidebar:"docsSidebar",previous:{title:"Sign Claim Transaction",permalink:"/guides/staking-api/polygon/delegate/sign-claim-transaction"},next:{title:"Get Flow Status",permalink:"/guides/staking-api/polygon/undelegate/get-flow-status"}},s={},l=[{value:"Parameters",id:"parameters",level:3},{value:"Sample cURL Request",id:"sample-curl-request",level:4},{value:"Response",id:"response",level:3},{value:"Sample Response",id:"sample-response",level:4}],d={toc:l};function p(e){let{components:n,...a}=e;return(0,i.kt)("wrapper",(0,t.Z)({},d,a,{components:n,mdxType:"MDXLayout"}),(0,i.kt)("p",null,"After signing the transaction, send a ",(0,i.kt)("inlineCode",{parentName:"p"},"PUT")," request to ",(0,i.kt)("inlineCode",{parentName:"p"},"/api/v1/flows/[:flow_id]/next")," with the signed payload.\nThe Staking API will broadcast the transaction to the Polygon network."),(0,i.kt)("h3",{id:"parameters"},"Parameters"),(0,i.kt)("ul",null,(0,i.kt)("li",{parentName:"ul"},(0,i.kt)("inlineCode",{parentName:"li"},"name")," ","\u2014"," ",(0,i.kt)("inlineCode",{parentName:"li"},"string")," Name of the action to execute (required)."),(0,i.kt)("li",{parentName:"ul"},(0,i.kt)("inlineCode",{parentName:"li"},"inputs")," ","\u2014"," ",(0,i.kt)("inlineCode",{parentName:"li"},"object"),(0,i.kt)("ul",{parentName:"li"},(0,i.kt)("li",{parentName:"ul"},(0,i.kt)("inlineCode",{parentName:"li"},"transaction_payload")," ","\u2014"," Signed transaction payload from the previous step's response.")))),(0,i.kt)("h4",{id:"sample-curl-request"},"Sample cURL Request"),(0,i.kt)("pre",null,(0,i.kt)("code",{parentName:"pre",className:"language-bash"},'curl -X PUT \'https://polygon-slate.datahub.figment.io/api/v1/flows/07d6752c-c412-4cfa-a12c-65feab06acd6/next\' \\\n-H \'Content-Type: application/json\' \\\n-H \'Authorization: <api_key>\' \\\n-d \'{\n  "name": "sign_claim_tx",\n  "inputs": {\n    "transaction_payload": "0x02f88f05038459682f00849b6d87fe830278519415ed57ca28cbebb58d9c6c62f570046bc089bc6680a4e97fddc20000000000000000000000000000000000000000000000000000000000000001c001a0818e02361da6e36a7d0093d385d1f13b0c5e539126023f8a4175ab1a375d0723a0571fabd4f32c978e1b17585f4df52d667ca9bd824204f43db0805a291c635c46"\n  }\n}\'\n')),(0,i.kt)("h3",{id:"response"},"Response"),(0,i.kt)("p",null,"With the signed transaction provided, the Staking API will broadcast it to the network.\nAs the transaction progresses towards confirmation, the returned ",(0,i.kt)("inlineCode",{parentName:"p"},"state")," will be either:"),(0,i.kt)("ul",null,(0,i.kt)("li",{parentName:"ul"},(0,i.kt)("inlineCode",{parentName:"li"},"claim_tx_broadcasting")," ","\u2014"," The transaction has been broadcast but not confirmed."),(0,i.kt)("li",{parentName:"ul"},(0,i.kt)("inlineCode",{parentName:"li"},"done")," ","\u2014"," The transaction has been confirmed and the rewards have been claimed.")),(0,i.kt)("h4",{id:"sample-response"},"Sample Response"),(0,i.kt)("pre",null,(0,i.kt)("code",{parentName:"pre",className:"language-json",metastring:"{3}","{3}":!0},'{\n  "id": "07d6752c-c412-4cfa-a12c-65feab06acd6",\n  "state": "claim_tx_broadcasting",\n  "actions": [\n    {\n      "name": "wait",\n      "estimated_state_change_at": "2022-10-11T18:14:51.766Z",\n      "inputs": []\n    }\n  ],\n  "data": {\n    "delegator_address": "0x542138451d0953Aa082dE659d2A1ca1e5EF452Bf",\n    "validator_address": "0x15ED57Ca28cbebb58d9c6C62F570046BC089bC66",\n    "amount": "1.0",\n    "max_shares_to_burn": 1000000000000000000,\n    "max_slippage_percentage": 0,\n    "exchange_rate": "100000000000000000000000000000.0",\n    "exchange_rate_precision": "100000000000000000000000000000.0",\n    "unbond_transaction": {\n      "raw": "0x02f86d05028459682f0084597a1b168304cf969415ed57ca28cbebb58d9c6c62f570046bc089bc6680b844c83ec04d0000000000000000000000000000000000000000000000000de0b6b3a76400000000000000000000000000000000000000000000000000000de0b6b3a7640000c0",\n      "signing_payload": null,\n      "signed": "0x02f8b005028459682f0084597a1b168304cf969415ed57ca28cbebb58d9c6c62f570046bc089bc6680b844c83ec04d0000000000000000000000000000000000000000000000000de0b6b3a76400000000000000000000000000000000000000000000000000000de0b6b3a7640000c001a0f8462149f25c9942852611ea06820bf0b3f588f63aead9702225010b2e80a096a0765feade968806e16f36cadf533d779ceb071f54ca6cf4935f6464302c0873da",\n      "hash": "0x36c57e119ef341fb23f261a7a44d10d7fe4044ccbcd1b39d509730ee0b75797c",\n      "status": "confirmed",\n      "error": null,\n      "signatures": [],\n      "gas_limit": null,\n      "gas_price": null\n    },\n    "claim_transaction": {\n      "raw": "0x02f84c05038459682f00849b6d87fe830278519415ed57ca28cbebb58d9c6c62f570046bc089bc6680a4e97fddc20000000000000000000000000000000000000000000000000000000000000001c0",\n      "signing_payload": null,\n      "signed": "0x02f88f05038459682f00849b6d87fe830278519415ed57ca28cbebb58d9c6c62f570046bc089bc6680a4e97fddc20000000000000000000000000000000000000000000000000000000000000001c001a0818e02361da6e36a7d0093d385d1f13b0c5e539126023f8a4175ab1a375d0723a0571fabd4f32c978e1b17585f4df52d667ca9bd824204f43db0805a291c635c46",\n      "hash": "0x5a565cc0002c73655cbf976fa3a04d9b9d20bc196e88f414cbdbdaed70ab7af6",\n      "status": null,\n      "error": null,\n      "signatures": [],\n      "gas_limit": null,\n      "gas_price": null\n    },\n    "estimated_unbonded_at": "2022-10-09T09:25:17.514Z",\n    "unbond_checkpoint": 78566,\n    "unbond_nonce": 1\n  },\n  "network_code": "polygon",\n  "chain_code": "testnet",\n  "created_at": "2022-10-06T23:40:33.826Z",\n  "updated_at": "2022-10-11T18:13:51.472Z"\n}\n')))}p.isMDXComponent=!0}}]);