"use strict";(self.webpackChunkfigment_documentation=self.webpackChunkfigment_documentation||[]).push([[5121],{3905:(e,n,t)=>{t.d(n,{Zo:()=>d,kt:()=>g});var a=t(7294);function i(e,n,t){return n in e?Object.defineProperty(e,n,{value:t,enumerable:!0,configurable:!0,writable:!0}):e[n]=t,e}function r(e,n){var t=Object.keys(e);if(Object.getOwnPropertySymbols){var a=Object.getOwnPropertySymbols(e);n&&(a=a.filter((function(n){return Object.getOwnPropertyDescriptor(e,n).enumerable}))),t.push.apply(t,a)}return t}function o(e){for(var n=1;n<arguments.length;n++){var t=null!=arguments[n]?arguments[n]:{};n%2?r(Object(t),!0).forEach((function(n){i(e,n,t[n])})):Object.getOwnPropertyDescriptors?Object.defineProperties(e,Object.getOwnPropertyDescriptors(t)):r(Object(t)).forEach((function(n){Object.defineProperty(e,n,Object.getOwnPropertyDescriptor(t,n))}))}return e}function s(e,n){if(null==e)return{};var t,a,i=function(e,n){if(null==e)return{};var t,a,i={},r=Object.keys(e);for(a=0;a<r.length;a++)t=r[a],n.indexOf(t)>=0||(i[t]=e[t]);return i}(e,n);if(Object.getOwnPropertySymbols){var r=Object.getOwnPropertySymbols(e);for(a=0;a<r.length;a++)t=r[a],n.indexOf(t)>=0||Object.prototype.propertyIsEnumerable.call(e,t)&&(i[t]=e[t])}return i}var l=a.createContext({}),c=function(e){var n=a.useContext(l),t=n;return e&&(t="function"==typeof e?e(n):o(o({},n),e)),t},d=function(e){var n=c(e.components);return a.createElement(l.Provider,{value:n},e.children)},u={inlineCode:"code",wrapper:function(e){var n=e.children;return a.createElement(a.Fragment,{},n)}},p=a.forwardRef((function(e,n){var t=e.components,i=e.mdxType,r=e.originalType,l=e.parentName,d=s(e,["components","mdxType","originalType","parentName"]),p=c(t),g=i,b=p["".concat(l,".").concat(g)]||p[g]||u[g]||r;return t?a.createElement(b,o(o({ref:n},d),{},{components:t})):a.createElement(b,o({ref:n},d))}));function g(e,n){var t=arguments,i=n&&n.mdxType;if("string"==typeof e||i){var r=t.length,o=new Array(r);o[0]=p;var s={};for(var l in n)hasOwnProperty.call(n,l)&&(s[l]=n[l]);s.originalType=e,s.mdxType="string"==typeof e?e:i,o[1]=s;for(var c=2;c<r;c++)o[c]=t[c];return a.createElement.apply(null,o)}return a.createElement.apply(null,t)}p.displayName="MDXCreateElement"},9057:(e,n,t)=>{t.r(n),t.d(n,{assets:()=>l,contentTitle:()=>o,default:()=>u,frontMatter:()=>r,metadata:()=>s,toc:()=>c});var a=t(7462),i=(t(7294),t(3905));const r={title:"Submit a Signed Unbonding Transaction for Broadcast",slug:"/guides/staking-api/polygon/undelegate/submit-signed-unbonding-transaction"},o=void 0,s={unversionedId:"guides/staking-api/Polygon/undelegate/submit-signed-transaction-1",id:"guides/staking-api/Polygon/undelegate/submit-signed-transaction-1",title:"Submit a Signed Unbonding Transaction for Broadcast",description:"After signing the transaction, you will PUT /api/v1/flows/[:flow_id]/next with the signed payload.",source:"@site/docs/guides/staking-api/Polygon/undelegate/4_submit-signed-transaction-1.mdx",sourceDirName:"guides/staking-api/Polygon/undelegate",slug:"/guides/staking-api/polygon/undelegate/submit-signed-unbonding-transaction",permalink:"/guides/staking-api/polygon/undelegate/submit-signed-unbonding-transaction",draft:!1,tags:[],version:"current",sidebarPosition:4,frontMatter:{title:"Submit a Signed Unbonding Transaction for Broadcast",slug:"/guides/staking-api/polygon/undelegate/submit-signed-unbonding-transaction"},sidebar:"docsSidebar",previous:{title:"Sign Unbonding Transaction",permalink:"/guides/staking-api/polygon/undelegate/sign-unbonding-transaction"},next:{title:"Unbonding Period",permalink:"/guides/staking-api/polygon/undelegate/unbonding-period"}},l={},c=[{value:"Parameters",id:"parameters",level:3},{value:"Sample cURL Request",id:"sample-curl-request",level:4},{value:"Response",id:"response",level:3},{value:"Sample Response",id:"sample-response",level:4}],d={toc:c};function u(e){let{components:n,...t}=e;return(0,i.kt)("wrapper",(0,a.Z)({},d,t,{components:n,mdxType:"MDXLayout"}),(0,i.kt)("p",null,"After signing the transaction, you will ",(0,i.kt)("inlineCode",{parentName:"p"},"PUT /api/v1/flows/[:flow_id]/next")," with the signed payload.\nThe Staking API will broadcast the transaction to the Polygon network."),(0,i.kt)("h3",{id:"parameters"},"Parameters"),(0,i.kt)("ul",null,(0,i.kt)("li",{parentName:"ul"},(0,i.kt)("inlineCode",{parentName:"li"},"name")," ","\u2014"," ",(0,i.kt)("inlineCode",{parentName:"li"},"string")," Name of the action to execute (required)."),(0,i.kt)("li",{parentName:"ul"},(0,i.kt)("inlineCode",{parentName:"li"},"inputs")," ","\u2014"," ",(0,i.kt)("inlineCode",{parentName:"li"},"array"),(0,i.kt)("ul",{parentName:"li"},(0,i.kt)("li",{parentName:"ul"},(0,i.kt)("inlineCode",{parentName:"li"},"transaction_payload")," ","\u2014"," Signed transaction payload from the previous step's response.")))),(0,i.kt)("h4",{id:"sample-curl-request"},"Sample cURL Request"),(0,i.kt)("pre",null,(0,i.kt)("code",{parentName:"pre",className:"language-bash",metastring:"{5-8}","{5-8}":!0},'curl -X PUT \'https://eth-slate.datahub.figment.io/api/v1/flows/07d6752c-c412-4cfa-a12c-65feab06acd6/next\' \\\n-H \'Content-Type: application/json\' \\\n-H \'Authorization: <api_key>\' \\\n-d \'{\n  "name": "sign_unbond_tx",\n  "inputs": {\n    "transaction_payload": "0x02f8b005028459682f0084597a1b168304cf969415ed57ca28cbebb58d9c6c62f570046bc089bc6680b844c83ec04d0000000000000000000000000000000000000000000000000de0b6b3a76400000000000000000000000000000000000000000000000000000de0b6b3a7640000c001a0f8462149f25c9942852611ea06820bf0b3f588f63aead9702225010b2e80a096a0765feade968806e16f36cadf533d779ceb071f54ca6cf4935f6464302c0873da"\n  }\n}\'\n')),(0,i.kt)("h3",{id:"response"},"Response"),(0,i.kt)("p",null,"With the signed transaction provided, the Staking API will broadcast it to the network.\nAs the transaction progresses towards confirmation, the returned state will either:"),(0,i.kt)("ul",null,(0,i.kt)("li",{parentName:"ul"},(0,i.kt)("inlineCode",{parentName:"li"},"unbond_tx_broadcasting")," ","\u2014"," The transaction has been broadcast and is waiting for confirmation."),(0,i.kt)("li",{parentName:"ul"},(0,i.kt)("inlineCode",{parentName:"li"},"unbonding")," ","\u2014"," The transaction has been confirmed and the delegation is unbonding.")),(0,i.kt)("h4",{id:"sample-response"},"Sample Response"),(0,i.kt)("pre",null,(0,i.kt)("code",{parentName:"pre",className:"language-json",metastring:"{3}","{3}":!0},'{\n  "id": "07d6752c-c412-4cfa-a12c-65feab06acd6",\n  "state": "unbond_tx_broadcasting",\n  "actions": [\n    {\n      "name": "wait",\n      "estimated_state_change_at": "2022-10-07T17:25:17.899Z",\n      "inputs": []\n    }\n  ],\n  "data": {\n    "delegator_address": "0x542138451d0953Aa082dE659d2A1ca1e5EF452Bf",\n    "validator_address": "0x15ED57Ca28cbebb58d9c6C62F570046BC089bC66",\n    "amount": "1.0",\n    "max_shares_to_burn": 1e18,\n    "max_slippage_percentage": 0,\n    "exchange_rate": "100000000000000000000000000000.0",\n    "exchange_rate_precision": "100000000000000000000000000000.0",\n    "unbond_transaction": {\n      "raw": "0x02f86d05028459682f0084597a1b168304cf969415ed57ca28cbebb58d9c6c62f570046bc089bc6680b844c83ec04d0000000000000000000000000000000000000000000000000de0b6b3a76400000000000000000000000000000000000000000000000000000de0b6b3a7640000c0",\n      "signing_payload": null,\n      "signed": "0x02f8b005028459682f0084597a1b168304cf969415ed57ca28cbebb58d9c6c62f570046bc089bc6680b844c83ec04d0000000000000000000000000000000000000000000000000de0b6b3a76400000000000000000000000000000000000000000000000000000de0b6b3a7640000c001a0f8462149f25c9942852611ea06820bf0b3f588f63aead9702225010b2e80a096a0765feade968806e16f36cadf533d779ceb071f54ca6cf4935f6464302c0873da",\n      "hash": "0x36c57e119ef341fb23f261a7a44d10d7fe4044ccbcd1b39d509730ee0b75797c",\n      "status": null,\n      "error": null,\n      "signatures": [],\n      "gas_limit": null,\n      "gas_price": null\n    },\n    "claim_transaction": null,\n    "estimated_unbonded_at": null,\n    "unbond_checkpoint": null,\n    "unbond_nonce": null\n  },\n  "network_code": "polygon",\n  "chain_code": "testnet",\n  "created_at": "2022-10-06T23:40:33.826Z",\n  "updated_at": "2022-10-07T17:24:17.339Z"\n}\n')))}u.isMDXComponent=!0}}]);